:1000000003308A00982B000089043C10D732EC3171
:10001000EF366510F4372019301A3810E730ED321A
:10002000201F0D050000A73027103D10CC32663A86
:100030002010273227103D10D23467347410A013DB
:10004000F713A01EA02A7010A013F313A01E2022E5
:10005000EF3BEE060A0500018C2CEF3A7210F331EB
:100060006F396505A53A000089048910C730ED3263
:10007000A027F632F2100D050001890461326410E8
:10008000EE3277105B195D10693720142532AC12FF
:10009000E4140D05000089048916AD162D2665337C
:1000A000F416AD16AD060A0089048916AD16D234D1
:1000B0006734F416AD160D05000189048916AD16D6
:1000C0002D2A6F38AD16AD160D050001890489166D
:1000D000AD16C237743AEF36AD16AD060A00603081
:1000E000840083130008031982280230F800F70106
:1000F000F70B7828F80B77289730F700F70B7E2856
:10010000800B7528080067188728061288280616AD
:10011000831606128312E7188F28861290288616F7
:1001200083168612831267199728061398280617D4
:10013000831606138312E7199F288613A0288617B3
:100140008316861300008312061583160611A8284D
:10015000A928831206118316061183120800E801EC
:100160008316061600308312061A0130E80483163F
:10017000861600308312861A0130F7000310F70D3F
:100180007708E8048316061700308312061B013037
:10019000F700F70DF70DFC30F7057708E804831634
:1001A000861700308312861B0130F700F70DF70D1C
:1001B000F70DF830F7057708E8046808F80008003C
:1001C0008316061186110610831286118316861176
:1001D000061686160617861783120614831606104F
:1001E0000000831206158316061100008312AF204B
:1001F0007808E70006118316061100008312061521
:100200008316061103298312AF207808E600061131
:100210008316061106128612061386138312670EC2
:10022000F700F030F70577086604F8007808E60074
:10023000E61F1C298316E828E408031D21298611DE
:100240002229861583168611000083120610831654
:100250000610000083120611831606118312650E24
:10026000E6000F30E6056608E700832065080F39D1
:10027000E600E700832008002830DC000C30DD00B9
:100280000130DE000630DF000611831606118312EE
:100290008611831686118312061083160610061225
:1002A0008612061386130611861106100F3083126C
:1002B000E0006F200130DB005B08033C031C682971
:1002C0000330E70083200530E0006F20DB0A5C2963
:1002D0000230E70083200530E0006F20DB015B087F
:1002E000033C031C7F295C305B07840083130008F8
:1002F000E000E4016008E500E020DB0A6F298A11D4
:100300000A12012C0B08DB008B13831603178C17C2
:100310000C140000000083120313DB1B8B17031760
:100320000C087F390319D8290313DB0003170D08C4
:100330000313DC0003170F080313DD005B080C1E1A
:100340009F2999005C0803178D0003135D080317AC
:100350008F0003130B08DE008B13831603178C1713
:100360000C140000000083120313DE1B8B1703170D
:100370000C0D0E0D7F390319D8290313DB00031769
:100380000D080313DC0003170F080313DD005B08DF
:100390000C1EC82999005C0803178D0003135D0823
:1003A00003178F008D0A03198F0A0313822903177D
:1003B00003130800610BDD29E0294030E200E12948
:1003C000E20101306002E20762088038E300E401E4
:1003D0006308E500E02008005F08073A0319FA29DE
:1003E0000B3A0319FF29063A0319072A023A03199F
:1003F0000D2A122A0130E000E100DA21172AE40177
:100400000130E500E0200230E0006F20172A0130C3
:10041000E0000230E100DA21172AE4011030E500A3
:10042000E020172A0130E4005F08E500E020080022
:100430000B08DC008B13831603178C170C140000B9
:10044000000083120313DC1B8B1703184F2A0317BA
:100450000C087F390313DC0003170D080313DD00BC
:1004600003170F080313DE005C08DF00EC215D08B2
:1004700003178D0003135E0803178F0003130B0887
:10048000DF008B13831603178C170C140000000079
:1004900083120313DF1B8B17DB0B4F2A6E2A031704
:1004A0000C0D0E0D7F390313DC0003170D08031329
:1004B000DD0003170F080313DE005C08DF00EC21EA
:1004C0005D0803178D0003135E0803178F008D0A64
:1004D00003198F0A03100313DB0B182A8A110A125F
:1004E0001C2C6408F80163020318792A6308F700DA
:1004F000852AF7010830E500E30DF70D640877025F
:100500000318F700F80DE50B7C2A080078085B0853
:10051000E3006430E40071227708DB0078083030B3
:10052000031D992ADC1CA02ADC19A02A5C1A2030A1
:100530009C2ADC115C125C14F8077808DF00EC21BF
:100540005B08E3000A30E40071227708DB007808DA
:100550003030031DB12ADC19B52A5C1CB52A5C1A9F
:100560002030F8077808DF00EC213030DB075B082B
:10057000DF00EC218A110A12212CF701F8015D0835
:1005800003105E18F707F70CF80CDE18F707F70CE6
:10059000F80C5E19F707F70CF80CDE19F707F70CE3
:1005A000F80C5E1AF707F70CF80CDE1AF707F70CD1
:1005B000F80C5E1BF707F70CF80CDE1BF707F70CBF
:1005C000F80C080020305E1E3030DF005D08F700B8
:1005D000DD1FF22AF709F70A7708DD002D30DF006A
:1005E000DE175E145D08E3006430E40071227708D2
:1005F000DD0030307807E0005D08E3000A30E400F9
:10060000712230307707E20030307807E1005F0870
:10061000F700303060020319112BDE14DE1B5E156B
:10062000252B5F08E0002030DF0030306102031925
:100630001D2B5E14DE1BDE14252B031D5E14031D13
:10064000252B6008E1002030E0005E192C2BDE181D
:10065000302B5E18342B382B5F080C1E2D2B990085
:1006600060080C1E312B990061080C1E352B990077
:1006700062080C1E392B990008000B08DE008B1352
:10068000831603178C170C14000000008312031349
:10069000DE1B8B170318752B03170C087F39031308
:1006A000DE0003170D080313DF0003170F08031301
:1006B000E0005E080C1E5A2B99005F0803178D009E
:1006C0000313600803178F0003130B08E1008B135B
:1006D000831603178C170C140000000083120313F9
:1006E000E11B8B17DD0B752B952B03170C0D0E0DD6
:1006F0007F390313DE0003170D080313DF00031710
:100700000F080313E0005E080C1E842B99005F089D
:1007100003178D000313600803178F008D0A031958
:100720008F0A03100313DD0B3D2B8A110A12B62D1D
:1007300003081F398300713083168F0090010F0862
:10074000031787110C3003139900A23098009030E2
:1007500083129800A301A201831603170908C03968
:10076000890003131F129F120030031788008312A1
:100770008701880189010313A1016A30A0000A30B2
:10078000EA00EC01A030EB004D308316A0000130F0
:10079000A2001030A1005D308312031790000130D9
:1007A0009200903091005D3083169000920191018B
:1007B000831203138313A401A501A601A701A801B5
:1007C000A901AA01AB01AC01AD01AE01AF01B001BD
:1007D000B101B201B301B401B501B601B701B8016D
:1007E000B901BA01BB01BC01BD01BE01BF01C0011D
:1007F000C101C201C301D330C4000130C500C6012C
:100800003C290630E0006F20043003178D000030D3
:100810008F0003138221133003178D0000308F00E7
:10082000031382212C3003178D0000308F0003103A
:100830000C300313DB00182A4608DB001B30DC00F9
:10084000862A0130E0006F20CB10CC01CD014D088D
:10085000033C031C052DCE014E08033C031C032D55
:100860004D0DF700F70DFC30F70577084E07243ED5
:10087000840083138008031D4B2C4C08CC0A343EA3
:10088000840083134D0DF700F70DFC30F705770852
:100890004E078000CB14CD080319792C01304D028E
:1008A000F700F70DF70DFC30F70577084E07243EEB
:1008B0008400831380080319002D01304D02F700D6
:1008C000F70DF70DFC30F70577084E07243E84003E
:1008D00083130008DB004D0DF700F70DFC30F70522
:1008E00077084E07243E8400831300085B02031937
:1008F000002D4D08033C0319A82C01304D07F700CB
:10090000F70DF70DFC30F70577084E07243E8400FD
:10091000831380080319002D01304D07F700F70DF0
:10092000F70DFC30F70577084E07243E840083134B
:100930000008DB004D0DF700F70DFC30F7057708D8
:100940004E07243E8400831300085B020319002D28
:10095000CE080319D42C4D0DDB00DB0DFC30DB057C
:1009600001304E025B07243E840083138008031984
:10097000002D4D0DDB00DB0DFC30DB0501304E02A0
:100980005B07243E840083130008DB004D0DF70055
:10099000F70DFC30F70577084E07243E84008313DB
:1009A00000085B020319002D4E08033C0319012DBA
:1009B0004D0DDB00DB0DFC30DB0501304E075B0726
:1009C000243E8400831380080319002D4D0DDB00A5
:1009D000DB0DFC30DB0501304E075B07243E840055
:1009E00083130008DB004D0DF700F70DFC30F70511
:1009F00077084E07243E8400831300085B02031926
:100A0000CB14CE0A2C2CCD0A272CCB180F2D34302A
:100A100003178D0000308F0003138221B62FC80109
:100A2000CF014C084F0203182F2D34304F0784009C
:100A300083130008DB0034304F0784008313000861
:100A4000DC005B08DD005C08DE00BD227808E30006
:100A50002B30E40071227708C807CF0A112D440813
:100A6000E3002930E40071227708DD004808DE0049
:100A7000BD227808DB007808E3004C08E40071220E
:100A80007708C8004408D0004508C4004508DD00C8
:100A90005008DE00BD227808DD004808DE00BD22D7
:100AA0007808C5003430480784008313000CF70031
:100AB000F70C3F30F7057708770DDB00DB0DFC30D6
:100AC000DB053430480784008313000803395B07D3
:100AD000243E8400831302308000D1015108033C7E
:100AE000031C9C2D09300C1E732D9900D201520855
:100AF000033C031C922D510DF700F70DFC30F70558
:100B000077085207243E840083130008DB00093075
:100B10000C1E882D99005B08DD001830DE00E222F3
:100B2000D20A772D0D300C1E932D99000A300C1E21
:100B3000972D9900D10A6E2D343048078400831315
:100B4000000CDB00DB0C3F30DB0534304807840051
:100B5000831300080339DC003D3003178D0000309B
:100B60008F00031012300313DD003D2B5B08DD0006
:100B70001830DE00E2222C300C1EBC2D99005C08DF
:100B8000DD001830DE00E22229300C1EC52D990050
:100B90000D300C1EC92D99000A300C1ECD2D990068
:100BA0000D300C1ED12D99000A300C1ED52D990048
:100BB0000D300C1ED92D99000A300C1EDD2D990028
:100BC0008C1EE02D1A08C7004708613A0319F22D60
:100BD000053A03195F2E133A0319D12E043A03196B
:100BE000402FB52F4B3003178D0000308F000313BB
:100BF0008221D3015308033C031C5E2E0130D40034
:100C00005408033C031C5C2E5408C900530DF70024
:100C1000F70DFC30F70577085407243E8400831352
:100C20000008CA00C9080319392E530DDB00DB0D7B
:100C3000FC30DB05013049025B07243E840083134E
:100C40008008031D252EC903382E530DDB00DB0D54
:100C5000FC30DB05013049025B07243E840083132E
:100C60004A080002031D372E0310CA0DC903392E8E
:100C7000122E5408490203195A2E4A08023C03183E
:100C8000432E4A08C607530DF700F70DFC30F70551
:100C900077084907243E840083134A088000530DD7
:100CA000F700F70DFC30F70577085407243E840061
:100CB00083138001D40A002ED30AFA2DB52F5430A5
:100CC00003178D0000308F0003138221D5015508D2
:100CD000033C031CD02E0130D6005608033C031CF5
:100CE000CE2E5608033CC900550DDB00DB0DFC3051
:100CF000DB055608033C5B07243E84008313000891
:100D0000CA004908023C031CA92E550DDB00DB0D6F
:100D1000FC30DB05013049075B07243E8400831368
:100D20008008031D952EC90AA82E550DDB00DB0D8A
:100D3000FC30DB05013049075B07243E8400831348
:100D40004A080002031DA72E0310CA0DC90AA92EC6
:100D5000812E5608033C49020319CC2E4A08023C56
:100D60000318B42E4A08C607550DF700F70DFC30DE
:100D7000F70577084907243E840083134A0880005A
:100D8000550DDB00DB0DFC30DB055608033C5B0733
:100D9000243E840083138001D60A6D2ED50A672E67
:100DA000B52F5D3003178D0000308F0003138221B3
:100DB000D7015708033C031C3F2F0130D8005808C7
:100DC000033C031C3D2F5808C900580DF700F70DD0
:100DD000FC30F70577085707243E8400831300088A
:100DE000CA00C90803191A2F01304902F700F70D8C
:100DF000F70DFC30F70577085707243E840083136E
:100E00008008031D052FC903192F01304902F7007F
:100E1000F70DF70DFC30F70577085707243E8400DF
:100E200083134A080002031D182F0310CA0DC903BB
:100E30001A2FF12E5808490203193B2F4A08023C89
:100E40000318242F4A08C607490DF700F70DFC3098
:100E5000F70577085707243E840083134A0880006B
:100E6000580DF700F70DFC30F70577085707243EBB
:100E7000840083138001D80ADF2ED70AD92EB52F1C
:100E8000663003178D0000308F0003138221D901D3
:100E90005908033C031CB52F0130DA005A08033C03
:100EA000031CB32F5A08033CC9005A08033CF7003F
:100EB000F70DF70DFC30F70577085907243E84003D
:100EC00083130008CA004908023C031C8D2F01301F
:100ED0004907F700F70DF70DFC30F70577085907BC
:100EE000243E840083138008031D782FC90A8C2FA9
:100EF00001304907F700F70DF70DFC30F7057708CB
:100F00005907243E840083134A080002031D8B2FD7
:100F10000310CA0DC90A8D2F632F5A08033C4902DA
:100F20000319B12F4A08023C0318982F4A08C60734
:100F3000490DF700F70DFC30F70577085907243EF7
:100F4000840083134A0880005A08033CF700F70D19
:100F5000F70DFC30F70577085907243E840083130A
:0E0F60008001DA0A4E2FD90A482F122C6300A6
:04400E00C42FFF3F7D
:00000001FF
;PIC16F886
;CRC=0DDC  CREATED="02-เม.ย.-20 01:45"
