:1000000003308A00982B000089043C10D732EC3171
:10001000EF366510F4372019301A3810E730ED321A
:10002000201F0D050000A73027103D10CC32663A86
:100030002010273227103D10D23467347410A013DB
:10004000F713A01EA02A7010A013F313A01E2022E5
:10005000EF3BEE060A0500018C2CEF3A7210F331EB
:100060006F396505A53A000089048910C730ED3263
:10007000A027F632F2100D05800089046132641069
:10008000EE3277105B195D10693720142532AC12FF
:10009000E4140D05000089048916AD162D2665337C
:1000A000F416AD16AD060A0089048916AD16D234D1
:1000B0006734F416AD160D05000189048916AD16D6
:1000C0002D2A6F38AD16AD160D050001890489166D
:1000D000AD16C237743AEF36AD16AD060A00683079
:1000E000840083130008031982280230F800F70106
:1000F000F70B7828F80B77289730F700F70B7E2856
:10010000800B752808006F188728061288280616A5
:10011000831606128312EF188F28861290288616EF
:100120008316861283126F199728061398280617CC
:10013000831606138312EF199F288613A0288617AB
:100140008316861300008312061583160611A8284D
:10015000A928831206118316061183120800F001E4
:100160008316061600308312061A0130F004831637
:10017000861600308312861A0130F7000310F70D3F
:100180007708F0048316061700308312061B01302F
:10019000F700F70DF70DFC30F7057708F00483162C
:1001A000861700308312861B0130F700F70DF70D1C
:1001B000F70DF830F7057708F0047008F80008002C
:1001C0008316061186110610831286118316861176
:1001D000061686160617861783120614831606104F
:1001E0000000831206158316061100008312AF204B
:1001F0007808EF0006118316061100008312061519
:100200008316061103298312AF207808EE00061129
:1002100083160611061286120613861383126F0EBA
:10022000F700F030F70577086E04F8007808EE0064
:10023000EE1F1C298316E828EC08031D21298611CE
:100240002229861583168611000083120610831654
:1002500006100000831206118316061183126D0E1C
:10026000EE000F30EE056E08EF0083206D080F39A9
:10027000EE00EF00832008002830E4000C30E50099
:100280000130E6000630E7000611831606118312DE
:100290008611831686118312061083160610061225
:1002A0008612061386130611861106100F3083126C
:1002B000E8006F200130E3006308033C031C682959
:1002C0000330EF0083200530E8006F20E30A5C294B
:1002D0000230EF0083200530E8006F20E30163085F
:1002E000033C031C7F2964306307840083130008E8
:1002F000E800EC016808ED00E020E30A6F298A11AC
:100300000A12F72B0B08E3008B13831603178C17C5
:100310000C140000000083120313E31B8B17031758
:100320000C087F390319D8290313E30003170D08BC
:100330000313E40003170F080313E50063080C1E02
:100340009F299900640803178D000313650803179C
:100350008F0003130B08E6008B13831603178C170B
:100360000C140000000083120313E61B8B17031705
:100370000C0D0E0D7F390319D8290313E300031761
:100380000D080313E40003170F080313E5006308C7
:100390000C1EC8299900640803178D000313650813
:1003A00003178F008D0A03198F0A0313822903177D
:1003B00003130800690BDD29E0294030EA00E12938
:1003C000EA0101306802EA076A088038EB00EC01B4
:1003D0006B08ED00E02008006708073A0319FA29C6
:1003E0000B3A0319FF29063A0319072A023A03199F
:1003F0000D2A122A0130E800E900DA21172AEC015F
:100400000130ED00E0200230E8006F20172A0130B3
:10041000E8000230E900DA21172AEC011030ED0083
:10042000E020172A0130EC006708ED00E02008000A
:100430000B08E4008B13831603178C170C140000B1
:10044000000083120313E41B8B1703184F2A0317B2
:100450000C087F390313E40003170D080313E500AC
:1004600003170F080313E6006408E700EC21650892
:1004700003178D000313660803178F0003130B087F
:10048000E7008B13831603178C170C140000000071
:1004900083120313E71B8B17E30B4F2A6E2A0317F4
:1004A0000C0D0E0D7F390313E40003170D08031321
:1004B000E50003170F080313E6006408E700EC21CA
:1004C000650803178D000313660803178F008D0A54
:1004D00003198F0A03100313E30B182A8A110A1257
:1004E000122C6C08F8016B020318792A6B08F700CC
:1004F000852AF7010830ED00EB0DF70D6C08770247
:100500000318F700F80DED0B7C2A08007808630843
:10051000EB006430EC0071227708E300780830309B
:10052000031D992AE41CA02AE419A02A641A203089
:100530009C2AE41164126414F8077808E700EC219F
:100540006308EB000A30EC0071227708E3007808BA
:100550003030031DB12AE419B52A641CB52A641A87
:100560002030F8077808E700EC213030E307630813
:10057000E700EC218A110A12172CF701F80165082F
:1005800003106618F707F70CF80CE618F707F70CD6
:10059000F80C6619F707F70CF80CE619F707F70CD3
:1005A000F80C661AF707F70CF80CE61AF707F70CC1
:1005B000F80C661BF707F70CF80CE61BF707F70CAF
:1005C000F80C08002030661E3030E7006508F700A0
:1005D000E51FF22AF709F70A7708E5002D30E70052
:1005E000E61766146508EB006430EC0071227708AA
:1005F000E50030307807E8006508EB000A30EC00D1
:10060000712230307707EA0030307807E900670858
:10061000F700303068020319112BE614E61B66154B
:10062000252B6708E8002030E70030306902031905
:100630001D2B6614E61BE614252B031D6614031DF3
:10064000252B6808E9002030E80066192C2BE618F5
:10065000302B6618342B382B67080C1E2D2B990075
:1006600068080C1E312B990069080C1E352B990067
:100670006A080C1E392B990008000B08E6008B1342
:10068000831603178C170C14000000008312031349
:10069000E61B8B170318752B03170C087F39031300
:1006A000E60003170D080313E70003170F080313F1
:1006B000E80066080C1E5A2B9900670803178D0086
:1006C0000313680803178F0003130B08E9008B134B
:1006D000831603178C170C140000000083120313F9
:1006E000E91B8B17E50B752B952B03170C0D0E0DC6
:1006F0007F390313E60003170D080313E700031700
:100700000F080313E80066080C1E842B9900670885
:1007100003178D000313680803178F008D0A031950
:100720008F0A03100313E50B3D2B8A110A12C12D0A
:1007300003081F398300713083168F0090010F0862
:10074000031787110C3003139900A23098009030E2
:1007500083129800A101A001831603170908C0396C
:10076000890003131F129F120030031788008312A1
:10077000870188018901831343300313A20093305A
:10078000A300D930A4002330A5000B30A6006F30A1
:10079000A700BD30A8007530A9009530AA00193017
:1007A000AB00AC01AD01AE01AF01B001B101B201CE
:1007B000B301B401B501B601B701B801B901BA017D
:1007C000BB01BC01BD01BE01BF01C001C101C2012D
:1007D000C301C401C501C601C701C801C901CA01DD
:1007E000CB01D330CC000130CD00CE013C29063006
:1007F000E8006F20043003178D0000308F000313D2
:100800008221133003178D0000308F0003138221E3
:100810002C3003178D0000308F0003100C300313B1
:10082000E300182A4E08E3001B30E400862A01305A
:10083000E8006F20D310D401D5015508033C031CF8
:10084000FB2CD6015608033C031CF92C550DF70070
:10085000F70DFC30F705770856072C3E840083130C
:100860008008031D412C5408D40A3C3E84008313A5
:10087000550DF700F70DFC30F70577085607800097
:10088000D314D50803196F2C01305502F700F70D6A
:10089000F70DFC30F705770856072C3E84008313CC
:1008A00080080319F62C01305502F700F70DF70DFB
:1008B000FC30F705770856072C3E840083130008A8
:1008C000E300550DF700F70DFC30F70577085607E4
:1008D0002C3E84008313000863020319F62C55088C
:1008E000033C03199E2C01305507F700F70DF70D57
:1008F000FC30F705770856072C3E840083138008E8
:100900000319F62C01305507F700F70DF70DFC30F1
:10091000F705770856072C3E840083130008E30090
:10092000550DF700F70DFC30F705770856072C3EFC
:1009300084008313000863020319F62CD6080319F8
:10094000CA2C550DE300E30DFC30E30501305602DF
:1009500063072C3E8400831380080319F62C550D81
:10096000E300E30DFC30E3050130560263072C3E43
:10097000840083130008E300550DF700F70DFC30E9
:10098000F705770856072C3E84008313000863029E
:100990000319F62C5608033C0319F72C550DE300F8
:1009A000E30DFC30E3050130560763072C3E84005D
:1009B000831380080319F62C550DE300E30DFC307A
:1009C000E3050130560763072C3E840083130008BB
:1009D000E300550DF700F70DFC30F70577085607D3
:1009E0002C3E84008313000863020319D314D60A33
:1009F000222CD50A1D2CD318052D343003178D0059
:100A000000308F0003138221C12FD001CD08031DB8
:100A1000142D5408EB000A30EC00712222307707C5
:100A2000840083130008CD00D7015408570203182F
:100A3000332D3C305707840083130008E3003C301B
:100A40005707840083130008E4006308E500640886
:100A5000E600BD227808EB002B30EC00712277080D
:100A6000D007D70A152D4C08EB002930EC00712275
:100A70007708E5005008E600BD227808E300780812
:100A8000EB005408EC0071227708D0004C08D80025
:100A90004D08CC004D08E5005808E600BD22780856
:100AA000E5005008E600BD2293307807F8000530D5
:100AB000FA000318FA0A7808CD003C305007840089
:100AC0008313000CF700F70C3F30F7057708770D1C
:100AD000E300E30DFC30E3053C3050078400831352
:100AE0000008033963072C3E840083130230800022
:100AF000D9015908033C031CA72D09300C1E7E2D7B
:100B00009900DA015A08033C031C9D2D590DF7008A
:100B1000F70DFC30F70577085A072C3E8400831345
:100B20000008E30009300C1E932D99006308E500CE
:100B30001830E600E222DA0A822D0D300C1E9E2DBE
:100B400099000A300C1EA22D9900D90A792D3C304B
:100B5000500784008313000CE300E30C3F30E305EF
:100B60003C3050078400831300080339E4003D3013
:100B700003178D0000308F00031012300313E500BF
:100B80003D2B6308E5001830E600E2222C300C1EF5
:100B9000C72D99006408E5001830E600E2222930EC
:100BA0000C1ED02D99000D300C1ED42D99000A304A
:100BB0000C1ED82D99000D300C1EDC2D99000A302A
:100BC0000C1EE02D99000D300C1EE42D99000A300A
:100BD0000C1EE82D99008C1EEB2D1A08CF004F0833
:100BE000613A0319FD2D053A03196A2E133A0319C8
:100BF000DC2E043A03194B2FC02F4B3003178D0006
:100C000000308F0003138221DB015B08033C031CCF
:100C1000692E0130DC005C08033C031C672E5C0875
:100C2000D1005B0DF700F70DFC30F70577085C0786
:100C30002C3E840083130008D200D1080319442EEF
:100C40005B0DE300E30DFC30E30501305102630767
:100C50002C3E840083138008031D302ED103432EC5
:100C60005B0DE300E30DFC30E30501305102630747
:100C70002C3E8400831352080002031D422E0310F1
:100C8000D20DD103442E1D2E5C0851020319652E8E
:100C90005208023C03184E2E5208CE075B0DF70097
:100CA000F70DFC30F705770851072C3E84008313BD
:100CB000520880005B0DF700F70DFC30F705770850
:100CC0005C072C3E840083138001DC0A0B2EDB0AB8
:100CD000052EC02F543003178D0000308F000313F2
:100CE0008221DD015D08033C031CDB2E0130DE00A8
:100CF0005E08033C031CD92E5E08033CD1005D0D49
:100D0000E300E30DFC30E3055E08033C63072C3E83
:100D1000840083130008D2005108023C031CB42E47
:100D20005D0DE300E30DFC30E3050130510763077F
:100D30002C3E840083138008031DA02ED10AB32EFD
:100D40005D0DE300E30DFC30E3050130510763075F
:100D50002C3E8400831352080002031DB22E0310A0
:100D6000D20DD10AB42E8C2E5E08033C5102031919
:100D7000D72E5208023C0318BF2E5208CE075D0D35
:100D8000F700F70DFC30F705770851072C3E84007B
:100D90008313520880005D0DE300E30DFC30E30592
:100DA0005E08033C63072C3E840083138001DE0A47
:100DB000782EDD0A722EC02F5D3003178D000030B3
:100DC0008F0003138221DF015F08033C031C4A2FBD
:100DD0000130E0006008033C031C482F6008D1008C
:100DE000600DF700F70DFC30F70577085F072C3E24
:100DF000840083130008D200D1080319252F013085
:100E00005102F700F70DF70DFC30F70577085F0783
:100E10002C3E840083138008031D102FD103242F40
:100E200001305102F700F70DF70DFC30F705770898
:100E30005F072C3E8400831352080002031D232FFA
:100E40000310D20DD103252FFC2E60085102031987
:100E5000462F5208023C03182F2F5208CE07510D7F
:100E6000F700F70DFC30F70577085F072C3E84008C
:100E7000831352088000600DF700F70DFC30F70572
:100E800077085F072C3E840083138001E00AEA2E76
:100E9000DF0AE42EC02F663003178D0000308F006C
:100EA00003138221E1016108033C031CC02F0130C0
:100EB000E2006208033C031CBE2F6208033CD10021
:100EC0006208033CF700F70DF70DFC30F7057708D3
:100ED00061072C3E840083130008D2005108023CB5
:100EE000031C982F01305107F700F70DF70DFC3068
:100EF000F705770861072C3E840083138008031DE3
:100F0000832FD10A972F01305107F700F70DF70D06
:100F1000FC30F705770861072C3E840083135208E4
:100F20000002031D962F0310D20DD10A982F6E2FA9
:100F30006208033C51020319BC2F5208023C0318FB
:100F4000A32F5208CE07510DF700F70DFC30F7051F
:100F5000770861072C3E84008313520880006208E2
:100F6000033CF700F70DF70DFC30F7057708610734
:100F70002C3E840083138001E20A592FE10A532F8B
:040F8000082C6300D6
:04400E00C42FFF3F7D
:00000001FF
;PIC16F886
;CRC=C7F8  CREATED="03-เม.ย.-20 00:49"
