:1000000004308A000B2C000089043C10D732EC31FC
:10001000EF366510F4372019301A3810E730ED321A
:10002000201F0D050000A73027103D10CC32663A86
:100030002010273227103D10D23467347410A013DB
:10004000F713A01EA02A7010A013F313A01E2022E5
:10005000EF3BEE060A0500018C2CEF3A7210F331EB
:100060006F396505A53A000089048910C730ED3263
:10007000A027F632F2100D050001890461326410E8
:10008000EE3277105B195D10693720142532AC12FF
:10009000E4140D05000089048916AD162D2665337C
:1000A000F416AD16AD060A0089048916AD16D234D1
:1000B0006734F416AD160D05000189048916AD16D6
:1000C0002D2A6F38AD16AD160D050001890489166D
:1000D000AD16C237743AEF36AD16AD060A0062307F
:1000E000840083130008031982280230F800F70106
:1000F000F70B7828F80B77289730F700F70B7E2856
:10010000800B7528080069188728061288280616AB
:10011000831606128312E9188F28861290288616F5
:1001200083168612831269199728061398280617D2
:10013000831606138312E9199F288613A0288617B1
:100140008316861300008312061583160611A8284D
:10015000A928831206118316061183120800EA01EA
:100160008316061600308312061A0130EA0483163D
:10017000861600308312861A0130F7000310F70D3F
:100180007708EA048316061700308312061B013035
:10019000F700F70DF70DFC30F7057708EA04831632
:1001A000861700308312861B0130F700F70DF70D1C
:1001B000F70DF830F7057708EA046A08F800080038
:1001C0008316061186110610831286118316861176
:1001D000061686160617861783120614831606104F
:1001E0000000831206158316061100008312AF204B
:1001F0007808E9000611831606110000831206151F
:100200008316061103298312AF207808E80006112F
:100210008316061106128612061386138312690EC0
:10022000F700F030F70577086804F8007808E80070
:10023000E81F1C298316E828E608031D21298611DA
:100240002229861583168611000083120610831654
:100250000610000083120611831606118312670E22
:10026000E8000F30E8056808E900832067080F39C7
:10027000E800E900832008002830DE000C30DF00B1
:100280000130E0000630E1000611831606118312EA
:100290008611831686118312061083160610061225
:1002A0008612061386130611861106100F3083126C
:1002B000E2006F200130DD005D08033C031C68296B
:1002C0000330E90083200530E2006F20DD0A5C295D
:1002D0000230E90083200530E2006F20DD015D0877
:1002E000033C031C7F295E305D07840083130008F4
:1002F000E200E6016208E700E020DD0A6F298A11CA
:100300000A12722C0B08DD008B13831603178C174F
:100310000C140000000083120313DD1B8B1703175E
:100320000C087F390319D8290313DD0003170D08C2
:100330000313DE0003170F080313DF005D080C1E14
:100340009F2999005E0803178D0003135F080317A8
:100350008F0003130B08E0008B13831603178C1711
:100360000C140000000083120313E01B8B1703170B
:100370000C0D0E0D7F390319D8290313DD00031767
:100380000D080313DE0003170F080313DF005D08D9
:100390000C1EC82999005E0803178D0003135F081F
:1003A00003178F008D0A03198F0A0313822903177D
:1003B000031308006108A7006008A6005F08A500F5
:1003C0005E08A4008A110A128B2C630BE829EB2922
:1003D0004030E400EC29E40101306202E4076408E3
:1003E0008038E500E6016508E700E02008006108C4
:1003F000073A0319052A0B3A03190A2A063A031980
:10040000122A023A0319182A1D2A0130E200E300D9
:10041000E521222AE6010130E700E0200230E20077
:100420006F20222A0130E2000230E300E521222A77
:10043000E6011030E700E020222A0130E6006108E2
:10044000E700E02008000B08DE008B13831603177B
:100450008C170C140000000083120313DE1B8B1793
:1004600003185A2A03170C087F390313DE000317F9
:100470000D080313DF0003170F080313E0005E08E5
:10048000E100F7215F0803178D00031360080317CD
:100490008F0003130B08E1008B13831603178C17CF
:1004A0000C140000000083120313E11B8B17DD0BFB
:1004B0005A2A792A03170C0D0E0D7F390313DE001B
:1004C00003170D080313DF0003170F080313E000E1
:1004D0005E08E100F7215F0803178D000313600831
:1004E00003178F008D0A03198F0A03100313DD0B06
:1004F000232A8A110A12952C6608F801650203184E
:10050000842A6508F700902AF7010830E700E50D16
:10051000F70D660877020318F700F80DE70B872A36
:10052000080078085D08E5006430E6007C22770862
:10053000DD0078083030031DA42ADE1CAB2ADE194A
:10054000AB2A5E1A2030A72ADE115E125E14F8076D
:100550007808E100F7215D08E5000A30E6007C221A
:100560007708DD0078083030031DBC2ADE19C02A68
:100570005E1CC02A5E1A2030F8077808E100F721D7
:100580003030DD075D08E100F7218A110A129A2C4C
:10059000F801F901F701FA016308031DD22A620884
:1005A0000319EC2A1030E4000310E00DE10DF70D03
:1005B000FA0D63087A02031DDF2A62087702031C22
:1005C000E82A6208F702031CFA036308FA0203141C
:1005D000F80DF90DE40BD42A08002708E0002608DE
:1005E000DF002508DE002408DD004130E400C630CD
:1005F000E3004E30E2006D30E1002030E900E5011B
:10060000E601E701E8016008FA005F08F9005E080A
:10061000F8005D08F7000310771C1C2B6108E50744
:1006200062080318620FE60763080318630FE70701
:1006300064080318640FE807E80CE70CE60CE50C07
:10064000FA0CF90CF80CF70CE90B0B2B3930770787
:10065000A4007808A500303003183130A5077908C8
:10066000A600003003180130A6077A08A700003062
:1006700003180130A7072608F7002708F800F9013A
:10068000FA012708DF002608DE002708E100260817
:10069000E0007F30E300FF30E200C8227708F80076
:1006A0007A08F9008A110A12892D2030601E303034
:1006B000E1005F08F700DF1F652BF709F70A7708ED
:1006C000DF002D30E100E01760145F08E5006430C2
:1006D000E6007C227708DF0030307807E2005F0810
:1006E000E5000A30E6007C2230307707E400303045
:1006F0007807E3006108F700303062020319842BA9
:10070000E014E01B6015982B6108E2002030E10046
:10071000303063020319902B6014E01BE014982B17
:10072000031D6014031D982B6208E3002030E200D3
:1007300060199F2BE018A32B6018A72BAB2B610827
:100740000C1EA02B990062080C1EA42B99006308B4
:100750000C1EA82B990064080C1EAC2B99000800F5
:100760000B08E0008B13831603178C170C14000082
:10077000000083120313E01B8B170318E82B0317E9
:100780000C087F390313E00003170D080313E10081
:1007900003170F080313E20060080C1ECD2B99000D
:1007A000610803178D000313620803178F000313FA
:1007B0000B08E3008B13831603178C170C1400002F
:1007C000000083120313E31B8B17DF0BE82B082CAD
:1007D00003170C0D0E0D7F390313E00003170D08EE
:1007E0000313E10003170F080313E20060080C1E57
:1007F000F72B9900610803178D0003136208031794
:100800008F008D0A03198F0A03100313DF0BB02B1F
:100810008A110A12FB2D03081F39830071308316D9
:100820008F0090010F08031787110C3003139900F4
:10083000A2309800903083129800A901A801831675
:1008400003170908C039890003131F129F120030D3
:100850000317880083128701880189010313A1010E
:100860006C30A0000830EC00EE01A030ED004D30FF
:100870008316A0000130A2001030A1005D30831269
:100880000317900001309200903091005D30831684
:10089000900092019101831203138313A201A3011B
:1008A000AA01AB01AC01AD01AE01AF01B001B101D4
:1008B000B201B301B401B501B601B701B801B90184
:1008C000BA01BB01BC01BD01BE01BF01C001C10134
:1008D000C201C301C401C501C601C701C801C901E4
:1008E000CA013C290630E2006F20043003178D0056
:1008F00000308F0003138221133003178D00003066
:100900008F00031382210108DD00E101E001DF0116
:100910005D08DE00DA292C3003178D0000308F00CF
:1009200003100C300313DD00232A4A08DD001B30BE
:10093000DE00912A0130E2006F20CF10D001D101FA
:100940005108033C031C7E2DD2015208033C031CBA
:100950007C2D510DF700F70DFC30F7057708520795
:100960002A3E840083138008031DC42C5008D00A3B
:100970003A3E84008313510DF700F70DFC30F70564
:10098000770852078000CF14D1080319F22C0130E8
:100990005102F700F70DF70DFC30F7057708520705
:1009A0002A3E8400831380080319792D01305102F7
:1009B000F700F70DF70DFC30F705770852072A3ED0
:1009C000840083130008DD00510DF700F70DFC30A3
:1009D000F705770852072A3E8400831300085D025A
:1009E0000319792D5108033C0319212D01305107BA
:1009F000F700F70DF70DFC30F705770852072A3E90
:100A00008400831380080319792D01305107F70002
:100A1000F70DF70DFC30F705770852072A3E8400E2
:100A200083130008DD00510DF700F70DFC30F705CA
:100A3000770852072A3E8400831300085D020319D9
:100A4000792DD20803194D2D510DDD00DD0DFC303F
:100A5000DD05013052025D072A3E840083138008C1
:100A60000319792D510DDD00DD0DFC30DD05013060
:100A700052025D072A3E840083130008DD00510DF9
:100A8000F700F70DFC30F705770852072A3E84007F
:100A9000831300085D020319792D5208033C0319E2
:100AA0007A2D510DDD00DD0DFC30DD0501305207E2
:100AB0005D072A3E8400831380080319792D510DA8
:100AC000DD00DD0DFC30DD05013052075D072A3EFB
:100AD000840083130008DD00510DF700F70DFC3092
:100AE000F705770852072A3E8400831300085D0249
:100AF0000319CF14D20AA52CD10AA02CCF18882D07
:100B0000343003178D0000308F0003138221FB2F38
:100B1000ED2A7908DE007808DD007908E100780820
:100B2000E000E3015008E200C8227708CC003A3028
:100B30004C0784008313000CF700F70C3F30F705D7
:100B40007708770DDD00DD0DFC30DD053A304C0710
:100B500084008313000803395D072A3E8400831351
:100B600002308000D3015308033C031CE12D0930FF
:100B70000C1EB82D9900D4015408033C031CD72D3A
:100B8000530DF700F70DFC30F705770854072A3EA0
:100B9000840083130008DD0009300C1ECD2D990060
:100BA0005D08DF001830E0005523D40ABC2D0D305D
:100BB0000C1ED82D99000A300C1EDC2D9900D30A8A
:100BC000B32D3A304C0784008313000CDD00DD0C9C
:100BD0003F30DD053A304C078400831300080339A9
:100BE000DE003D3003178D0000308F0003101230FF
:100BF0000313DF00B02B5D08DF001830E000552341
:100C00002C300C1E012E99005E08DF001830E00029
:100C1000552329300C1E0A2E99000D300C1E0E2E65
:100C200099000A300C1E122E99000D300C1E162E43
:100C300099000A300C1E1A2E99000D300C1E1E2E23
:100C400099000A300C1E222E99008C1E252E1A089F
:100C5000CB004B08613A0319372E053A0319A42E2D
:100C6000133A0319162F043A0319852FFA2F4B3024
:100C700003178D0000308F0003138221D501550822
:100C8000033C031CA32E0130D6005608033C031C72
:100C9000A12E5608CD00550DF700F70DFC30F705D5
:100CA000770856072A3E840083130008CE00CD083B
:100CB00003197E2E550DDD00DD0DFC30DD05013004
:100CC0004D025D072A3E840083138008031D6A2EAF
:100CD000CD037D2E550DDD00DD0DFC30DD05013031
:100CE0004D025D072A3E840083134E080002031D57
:100CF0007C2E0310CE0DCD037E2E572E56084D02AE
:100D000003199F2E4E08023C0318882E4E08CA076E
:100D1000550DF700F70DFC30F70577084D072A3E13
:100D2000840083134E088000550DF700F70DFC304A
:100D3000F705770856072A3E840083138001D60AF8
:100D4000452ED50A3F2EFA2F543003178D00003060
:100D50008F0003138221D7015708033C031C152F72
:100D60000130D8005808033C031C132F5808033CDB
:100D7000CD00570DDD00DD0DFC30DD055808033CCE
:100D80005D072A3E840083130008CE004D08023C14
:100D9000031CEE2E570DDD00DD0DFC30DD050130AE
:100DA0004D075D072A3E840083138008031DDA2E59
:100DB000CD0AED2E570DDD00DD0DFC30DD050130D7
:100DC0004D075D072A3E840083134E080002031D71
:100DD000EC2E0310CE0DCD0AEE2EC62E5808033C85
:100DE0004D020319112F4E08023C0318F92E4E082C
:100DF000CA07570DF700F70DFC30F70577084D07C8
:100E00002A3E840083134E088000570DDD00DD0D5F
:100E1000FC30DD055808033C5D072A3E840083133F
:100E20008001D80AB22ED70AAC2EFA2F5D300317F4
:100E30008D0000308F0003138221D9015908033C33
:100E4000031C842F0130DA005A08033C031C822F54
:100E50005A08CD005A0DF700F70DFC30F70577085A
:100E600059072A3E840083130008CE00CD080319D9
:100E70005F2F01304D02F700F70DF70DFC30F7053D
:100E8000770859072A3E840083138008031D4A2FE0
:100E9000CD035E2F01304D02F700F70DF70DFC304A
:100EA000F705770859072A3E840083134E0800028D
:100EB000031D5D2F0310CE0DCD035F2F362F5A0873
:100EC0004D020319802F4E08023C0318692F4E086B
:100ED000CA074D0DF700F70DFC30F70577085907E5
:100EE0002A3E840083134E0880005A0DF700F70D48
:100EF000FC30F705770859072A3E840083138001E8
:100F0000DA0A242FD90A1E2FFA2F663003178D0014
:100F100000308F0003138221DB015B08033C031CBC
:100F2000FA2F0130DC005C08033C031CF82F5C083E
:100F3000033CCD005C08033CF700F70DF70DFC30D7
:100F4000F70577085B072A3E840083130008CE006C
:100F50004D08023C031CD22F01304D07F700F70D5E
:100F6000F70DFC30F70577085B072A3E84008313F2
:100F70008008031DBD2FCD0AD12F01304D07F7008A
:100F8000F70DF70DFC30F70577085B072A3E840064
:100F900083134E080002031DD02F0310CE0DCD0A7F
:100FA000D22FA82F5C08033C4D020319F62F4E08E0
:100FB000023C0318DD2F4E08CA074D0DF700F70D50
:100FC000FC30F70577085B072A3E840083134E0840
:100FD00080005C08033CF700F70DF70DFC30F705C7
:100FE00077085B072A3E840083138001DC0A932F75
:080FF000DB0A8D2F8B2C63003E
:04400E00C42FFF3F7D
:00000001FF
;PIC16F886
;CRC=13B0  CREATED="03-เม.ย.-20 10:52"
